:100000000C945D000C947A000C947A000C947A00A5
:100010000C947A000C947A000C947A000C947A0078
:100020000C947A000C947A000C947A000C947A0068
:100030000C947A000C947A000C947A000C947A0058
:100040000C9471010C947A000C947A000C947A0050
:100050000C947A000C947A000C947A000C947A0038
:100060000C947A000C947A00000000080002010051
:100070000003040700000000000000000000000072
:10008000250028002B0000000000240027002A0083
:10009000040404040404040402020202020203032E
:1000A0000303030301020408102040800102040836
:1000B0001020010204081020C40311241FBECFEF3A
:1000C000D8E0DEBFCDBF21E0A0E0B1E001C01D92CD
:1000D000A131B207E1F710E0CDE5D0E004C02197EF
:1000E000FE010E94C903CC35D107C9F70E94BB01AC
:1000F0000C94CF030C94000090E0FC01EC55FF4FF2
:10010000249180579F4FFC018491882399F090E0BF
:10011000880F991FFC01EA57FF4FA591B491FC018C
:10012000E458FF4F859194918FB7F894EC91E22BAE
:10013000EC938FBF089590E0FC01E859FF4F2491A4
:10014000FC01EC55FF4F3491FC01E057FF4FE49167
:10015000EE23C9F0222339F0233001F1A8F4213035
:1001600019F1223029F1F0E0EE0FFF1FE458FF4FA4
:10017000A591B4918FB7F894EC91611126C0309598
:100180003E233C938FBF08952730A9F02830C9F053
:10019000243049F7809180008F7D03C080918000DA
:1001A0008F7780938000DFCF84B58F7784BDDBCFDE
:1001B00084B58F7DFBCF8091B0008F778093B000A6
:1001C000D2CF8091B0008F7DF9CF3E2BDACFCF9385
:1001D000C82F61E080910E010E949B0060E0809139
:1001E0000C010E949B00CEBD00000DB407FEFDCFA8
:1001F0008EB561E080910C01CF910C949B003FB7CC
:10020000F8948091060190910701A0910801B091A6
:10021000090126B5A89B05C02F3F19F00196A11D25
:10022000B11D3FBFBA2FA92F982F8827BC01CD0140
:10023000620F711D811D911D42E0660F771F881F9F
:10024000991F4A95D1F708958F929F92AF92BF92CE
:10025000CF92DF92EF92FF920E94FF004B015C0170
:1002600082E3C82ED12CE12CF12C0E94FF006819EA
:1002700079098A099B09683E734081059105A8F3B5
:1002800021E0C21AD108E108F10888EE880E83E067
:10029000981EA11CB11CC114D104E104F10429F77A
:1002A000FF90EF90DF90CF90BF90AF909F908F9096
:1002B0000895CF93DF93C82F862FD42F60E00E943C
:1002C0009B0060E08C2F0E949B00DEBD00000DB4FF
:1002D00007FEFDCF8EB561E08C2FDF91CF910C949E
:1002E0009B001F920F920FB60F9211242F933F93F2
:1002F0008F939F93AF93BF938091020190910301DD
:10030000A0910401B09105013091010123E0230F78
:100310002D3758F50196A11DB11D20930101809341
:10032000020190930301A0930401B0930501809111
:10033000060190910701A0910801B0910901019671
:10034000A11DB11D8093060190930701A0930801A0
:10035000B0930901BF91AF919F918F913F912F91E0
:100360000F900FBE0F901F90189526E8230F02964E
:10037000A11DB11DD2CF789484B5826084BD84B5AF
:10038000816084BD85B5826085BD85B5816085BD90
:1003900080916E00816080936E0010928100809148
:1003A00081008260809381008091810081608093D0
:1003B0008100809180008160809380008091B100F5
:1003C00084608093B1008091B00081608093B00020
:1003D00080917A00846080937A0080917A008260B4
:1003E00080937A0080917A00816080937A00809176
:1003F0007A00806880937A001092C1008DE080932B
:100400000A018BE080930B018AE080930C0189E064
:1004100080930D0188E080930E010E947C00809102
:100420000B010E947C00CFB7F894809100018111EC
:1004300024C0EAE9F0E08491EEEAF0E09491E82F3C
:10044000F0E0EE0FFF1FEA57FF4FA591B491EC913A
:10045000E92321F461E08AE00E949B008AE00E9487
:100460007C008CB580618CBD8CB580648CBD8DE0CA
:100470000E947C008BE00E947C00809100018F5FD5
:1004800080930001CFBF8CB58C608CBD80910C0136
:100490000E947C0060E080910C010E949B00809192
:1004A0000D018823B9F00E947C0061E080910D016C
:1004B0000E949B000E94240160E080910D010E9437
:1004C0009B000E94240161E080910D010E949B002D
:1004D0000E9424014EEA60910E0180910C010E945D
:1004E000590145E260910E0180910C010E94590171
:1004F00041E860910E0180910C010E94590140E891
:1005000060910E0180910C010E94590142E86091B6
:100510000E0180910C010E94590140E860910E018A
:1005200080910C010E94590143E860910E01809175
:100530000C010E94590140E860910E0180910C016C
:100540000E94590147E860910E0180910C010E94C0
:1005500059014CE060910E0180910C010E945901FB
:100560004AE860910E0180910C010E94590144E615
:1005700060910E0180910C010E9459014BE860913D
:100580000E0180910C010E94590148E760910E0113
:1005900080910C010E9459014CE860910E018091FC
:1005A0000C010E94590144E660910E0180910C01FA
:1005B0000E94590140EA60910E0180910C010E9455
:1005C000590142E760910E0180910C010E9459018E
:1005D00041EA60910E0180910C010E94590140E0B6
:1005E00060910E0180910C010E94590142EA6091D4
:1005F0000E0180910C010E94590140E060910E01B2
:1006000080910C010E94590144EA60910E01809191
:100610000C010E94590148EA60910E0180910C0181
:100620000E9459014FE360910E0180910C010E94DC
:1006300059014DEA60910E0180910C010E9459010F
:100640004EE860910E0180910C010E94590140EB2F
:1006500060910E0180910C010E94590140E060916F
:100660000E0180910C010E94590141EB60910E0135
:1006700080910C010E94590141E360910E0180912B
:100680000C010E94590143EB60910E0180910C0115
:100690000E94590140EF60910E0180910C010E946F
:1006A00059014BEB60910E0180910C010E945901A0
:1006B0004AE360910E0180910C010E9459014EEBBA
:1006C00060910E0180910C010E9459014EE36091EE
:1006D0000E0180910C010E9459014EE260910E01C1
:1006E00080910C010E9459014FEA60910E018091A6
:1006F0000C010E94590146E260910E0180910C01AB
:100700000E94590141E060910E0180910C010E940C
:10071000590145E260910E0180910C010E9459013E
:1007200045E160910E0180910C010E94590140E069
:1007300060910E0180910C010E9459014FE560917A
:100740000E0180910C010E94590140E060910E0160
:1007500080910C010E9459014FE360910E0180913C
:100760000C010E94590187E00E94E70080EE0E9480
:10077000E70010920F0110921001C0E0D0E0209726
:10078000F1F30E940000FBCFEAE0F1E0158216824F
:100790000895EE0FFF1F0590F491E02D0994F89451
:0207A000FFCF89
:00000001FF
