:100000000C945D000C9485000C9485000C94850084
:100010000C9485000C9485000C9485000C9485004C
:100020000C9485000C9485000C9485000C9485003C
:100030000C9485000C9485000C9485000C9485002C
:100040000C94E4030C9485000C9454040C942E043A
:100050000C9485000C9485000C9485000C9485000C
:100060000C9485000C94850000000008000201003B
:100070000003040700000000000000000000000072
:10008000250028002B0000000000240027002A0083
:10009000040404040404040402020202020203032E
:1000A0000303030301020408102040800102040836
:1000B00010200102040810202C0511241FBECFEFD0
:1000C000D8E0DEBFCDBF11E0A0E0B1E0E2ECFAE0A5
:1000D00002C005900D92A632B107D9F721E0A6E241
:1000E000B1E001C01D92AD3CB207E1F710E0CDE5F3
:1000F000D0E004C02197FE010E945905CC35D107FC
:10010000C9F70E9486040C945F050C94000090E0EF
:10011000FC01EC55FF4F249180579F4FFC018491C7
:10012000882399F090E0880F991FFC01EA57FF4F50
:10013000A591B491FC01E458FF4F859194918FB73C
:10014000F894EC91E22BEC938FBF089590E0FC01C2
:10015000E859FF4F2491FC01EC55FF4F3491FC010D
:10016000E057FF4FE491EE23C9F0222339F023300A
:1001700001F1A8F4213019F1223029F1F0E0EE0F5D
:10018000FF1FE458FF4FA591B4918FB7F894EC91FD
:10019000611126C030953E233C938FBF08952730D0
:1001A000A9F02830C9F0243049F7809180008F7D74
:1001B00003C0809180008F7780938000DFCF84B56B
:1001C0008F7784BDDBCF84B58F7DFBCF8091B0006E
:1001D0008F778093B000D2CF8091B0008F7DF9CF20
:1001E0003E2BDACF3FB7F8948091C9019091CA01B4
:1001F000A091CB01B091CC0126B5A89B05C02F3FA3
:1002000019F00196A11DB11D3FBFBA2FA92F982F3C
:100210008827BC01CD01620F711D811D911D42E037
:10022000660F771F881F991F4A95D1F708958F92FF
:100230009F92AF92BF92CF92DF92EF92FF920E9475
:10024000F2004B015C0182E3C82ED12CE12CF12C91
:100250000E94F200681979098A099B09683E734077
:1002600081059105A8F321E0C21AD108E108F1083F
:1002700088EE880E83E0981EA11CB11CC114D10425
:10028000E104F10429F7FF90EF90DF90CF90BF9049
:10029000AF909F908F900895AF92BF92CF92DF92D0
:1002A000EF92FF920F931F93CF93DF936C017B012B
:1002B0008B01040F151FEB015E01AE18BF08C017BC
:1002C000D10759F06991D601ED91FC910190F0812F
:1002D000E02DC6010995892B79F7C501DF91CF91F2
:1002E0001F910F91FF90EF90DF90CF90BF90AF9054
:1002F0000895FC01538D448D252F30E0842F90E02C
:10030000821B930B541710F0CF9608950197089510
:10031000FC01918D828D981761F0A28DAE0FBF2FD9
:10032000B11D5D968C91928D9F5F9F73928F90E02F
:1003300008958FEF9FEF0895FC01918D828D98179E
:1003400031F0828DE80FF11D858D90E008958FEFDB
:100350009FEF0895FC01918D228D892F90E0805CA4
:100360009F4F821B91098F739927089587E291E02F
:100370000E94AA0121E0892B09F420E0822F089530
:1003800080E090E0892B29F00E94B60181110C9445
:1003900000000895FC01A48DA80FB92FB11DA35A28
:1003A000BF4F2C91848D90E001968F739927848F95
:1003B000A689B7892C93A089B1898C9183708064B8
:1003C0008C93938D848D981306C00288F389E02D59
:1003D00080818F7D80830895EF92FF920F931F930A
:1003E000CF93DF93EC0181E0888F9B8D8C8D9813E8
:1003F0001AC0E889F989808185FF15C09FB7F894F4
:10040000EE89FF896083E889F9898081837080643F
:1004100080839FBF81E090E0DF91CF911F910F918A
:10042000FF90EF900895F62E0B8D10E00F5F1F4F99
:100430000F731127E02E8C8D8E110CC00FB607FCA8
:10044000FACFE889F989808185FFF5CFCE010E9436
:10045000CA01F1CFEB8DEC0FFD2FF11DE35AFF4FD9
:10046000F0829FB7F8940B8FEA89FB8980818062C4
:10047000CFCFCF93DF93EC01888D8823B9F0AA8981
:10048000BB89E889F9898C9185FD03C0808186FD4F
:100490000DC00FB607FCF7CF8C9185FFF2CF80819E
:1004A00085FFEDCFCE010E94CA01E9CFDF91CF9148
:1004B0000895CF93DF93D62FFC01C28160E0848141
:1004C0000E94A60060E08C2F0E94A600DEBD000006
:1004D0000DB407FEFDCF8EB561E08C2FDF91CF917B
:1004E0000C94A6001F93CF93DF93EC018DE08A83D9
:1004F0008BE08B838AE08C8389E08D8388E08E8318
:100500000E9487008B810E9487001FB7F89480911A
:100510002601811124C0EAE9F0E08491EEEAF0E0DE
:100520009491E82FF0E0EE0FFF1FEA57FF4FA591DF
:10053000B491EC91E92321F461E08AE00E94A600E5
:100540008AE00E9487008CB580618CBD8CB5806488
:100550008CBD8DE00E9487008BE00E948700809117
:1005600026018F5F809326011FBF8CB58C608CBDE8
:100570008C810E94870060E08C810E94A6008D81A2
:100580008823A1F00E94870061E08D810E94A6006F
:100590000E94170160E08D810E94A6000E94170151
:1005A00061E08D810E94A6000E94170122966EEAEA
:1005B000CE010E94590265E2CE010E94590261E813
:1005C000CE010E94590260E8CE010E94590262E801
:1005D000CE010E94590260E8CE010E94590263E8F0
:1005E000CE010E94590260E8CE010E94590267E8DC
:1005F000CE010E9459026CE0CE010E9459026AE8C5
:10060000CE010E94590264E6CE010E9459026BE8B5
:10061000CE010E94590268E7CE010E9459026CE89F
:10062000CE010E94590264E6CE010E94590260EA9E
:10063000CE010E94590262E7CE010E94590261EA8E
:10064000CE010E94590260E0CE010E94590262EA86
:10065000CE010E94590260E0CE010E94590264EA74
:10066000CE010E94590268EACE010E9459026FE34E
:10067000CE010E9459026DEACE010E9459026EE835
:10068000CE010E94590260EBCE010E94590260E047
:10069000CE010E94590261EBCE010E94590261E332
:1006A000CE010E94590263EBCE010E94590260EF15
:1006B000CE010E9459026BEBCE010E9459026AE3FF
:1006C000CE010E9459026EEBCE010E9459026EE3E8
:1006D000CE010E9459026EE2CE010E9459026FEAD9
:1006E000CE010E94590266E2CE010E94590261E0E9
:1006F000CE01DF91CF911F910C9459021F93CF939C
:10070000DF93EC01162F61E08C810E94A60060E06F
:100710008A810E94A6001EBD00000DB407FEFDCF19
:100720008EB561E08A81DF91CF911F910C94A60074
:100730008F929F92AF92BF92CF92DF92EF92FF92F1
:100740000F931F93CF93DF937C01C62ED42E4801C5
:100750005901EC01229665E2CE010E94590280E621
:100760008C15B8F0E0E4ED15A0F065E1CE010E9433
:1007700059026C2DCE010E9459026FE5CE010E94F4
:1007800059026D2DCE010E9459026FE3CE010E94E5
:10079000590299278B2D7A2D692DCE010E947E0357
:1007A000682DCE010E947E03F701C782D086DF91BB
:1007B000CF911F910F91FF90EF90DF90CF90BF905E
:1007C000AF909F908F9008951F920F920FB60F9247
:1007D00011242F933F938F939F93AF93BF93809157
:1007E000C5019091C601A091C701B091C801309197
:1007F000C40123E0230F2D3758F50196A11DB11D2B
:100800002093C4018093C5019093C601A093C701B2
:10081000B093C8018091C9019091CA01A091CB0108
:10082000B091CC010196A11DB11D8093C901909397
:10083000CA01A093CB01B093CC01BF91AF919F911E
:100840008F913F912F910F900FBE0F901F90189591
:1008500026E8230F0296A11DB11DD2CF1F920F9241
:100860000FB60F9211242F933F934F935F936F9383
:100870007F938F939F93AF93BF93EF93FF9387E201
:1008800091E00E94CA01FF91EF91BF91AF919F91BA
:100890008F917F916F915F914F913F912F910F9029
:1008A0000FBE0F901F9018951F920F920FB60F92C8
:1008B00011242F938F939F93EF93FF93E091370130
:1008C000F09138018081E0913D01F0913E0182FD7F
:1008D0001BC09081809140018F5F8F7320914101F7
:1008E000821741F0E0914001F0E0E95DFE4F958F05
:1008F00080934001FF91EF919F918F912F910F90E5
:100900000FBE0F901F9018958081F4CF789484B516
:10091000826084BD84B5816084BD85B5826085BDFB
:1009200085B5816085BD80916E00816080936E0089
:10093000109281008091810082608093810080917B
:10094000810081608093810080918000816080932C
:1009500080008091B10084608093B1008091B000EC
:1009600081608093B00080917A00846080937A00E7
:1009700080917A00826080937A0080917A00816011
:1009800080937A0080917A00806880937A00109238
:10099000C100E0913701F091380182E08083E0915D
:1009A0003301F09134011082E0913501F09136016C
:1009B00080E1808310923F01E0913B01F0913C0186
:1009C00086E08083E0913901F0913A018081806175
:1009D0008083E0913901F0913A01808188608083C1
:1009E000E0913901F0913A01808180688083E09143
:1009F0003901F0913A0180818F7D808380E091E020
:100A00000E947202C0E0D0E00DE110E020E030E092
:100A10004C2F6D2F80E091E00E949803DF5FDA3069
:100A200099F760E287E291E00E94EC0142E050E039
:100A300063E271E087E291E00E944C01CF5FCA302F
:100A400011F7C0E0D0E02097F1F30E94B6018823AF
:100A5000D1F30E940000F7CFE7E2F1E013821282A7
:100A600088EE93E0A0E0B0E084839583A683B7830B
:100A700085E191E09183808385EC90E09587848780
:100A800084EC90E09787868780EC90E0918B808B58
:100A900081EC90E0938B828B82EC90E0958B848B41
:100AA00086EC90E0978B868B118E128E138E148EAF
:100AB0000895EE0FFF1F0590F491E02D0994F8942E
:020AC000FFCF66
:100AC2000D0100000000000000000000007202980A
:100AD2000300000000EC014C0179013902AA0188EF
:060AE200019C010D0A0059
:00000001FF
